{
  "_format": "hh-sol-artifact-1",
  "contractName": "DeFreeMarketplace",
  "sourceName": "contracts/DeFreeMarketplace.sol",
  "abi": [
    {
      "inputs": [
        {
          "internalType": "address",
          "name": "_nftAddress",
          "type": "address"
        }
      ],
      "stateMutability": "nonpayable",
      "type": "constructor"
    },
    {
      "anonymous": false,
      "inputs": [
        {
          "indexed": true,
          "internalType": "uint256",
          "name": "id",
          "type": "uint256"
        }
      ],
      "name": "ProjectCancelled",
      "type": "event"
    },
    {
      "anonymous": false,
      "inputs": [
        {
          "indexed": true,
          "internalType": "uint256",
          "name": "id",
          "type": "uint256"
        },
        {
          "indexed": false,
          "internalType": "address",
          "name": "freelancer",
          "type": "address"
        },
        {
          "indexed": false,
          "internalType": "string",
          "name": "nftURI",
          "type": "string"
        }
      ],
      "name": "ProjectCompleted",
      "type": "event"
    },
    {
      "anonymous": false,
      "inputs": [
        {
          "indexed": true,
          "internalType": "uint256",
          "name": "id",
          "type": "uint256"
        },
        {
          "indexed": false,
          "internalType": "address",
          "name": "client",
          "type": "address"
        },
        {
          "indexed": false,
          "internalType": "address",
          "name": "freelancer",
          "type": "address"
        },
        {
          "indexed": false,
          "internalType": "uint256",
          "name": "amount",
          "type": "uint256"
        }
      ],
      "name": "ProjectCreated",
      "type": "event"
    },
    {
      "anonymous": false,
      "inputs": [
        {
          "indexed": true,
          "internalType": "uint256",
          "name": "id",
          "type": "uint256"
        }
      ],
      "name": "ProjectStarted",
      "type": "event"
    },
    {
      "inputs": [
        {
          "internalType": "uint256",
          "name": "_id",
          "type": "uint256"
        }
      ],
      "name": "cancelProject",
      "outputs": [],
      "stateMutability": "nonpayable",
      "type": "function"
    },
    {
      "inputs": [
        {
          "internalType": "address",
          "name": "_freelancer",
          "type": "address"
        }
      ],
      "name": "createProject",
      "outputs": [],
      "stateMutability": "payable",
      "type": "function"
    },
    {
      "inputs": [
        {
          "internalType": "uint256",
          "name": "_id",
          "type": "uint256"
        },
        {
          "internalType": "string",
          "name": "nftURI",
          "type": "string"
        }
      ],
      "name": "markCompleted",
      "outputs": [],
      "stateMutability": "nonpayable",
      "type": "function"
    },
    {
      "inputs": [],
      "name": "projectCount",
      "outputs": [
        {
          "internalType": "uint256",
          "name": "",
          "type": "uint256"
        }
      ],
      "stateMutability": "view",
      "type": "function"
    },
    {
      "inputs": [
        {
          "internalType": "uint256",
          "name": "",
          "type": "uint256"
        }
      ],
      "name": "projects",
      "outputs": [
        {
          "internalType": "address",
          "name": "client",
          "type": "address"
        },
        {
          "internalType": "address",
          "name": "freelancer",
          "type": "address"
        },
        {
          "internalType": "uint256",
          "name": "amount",
          "type": "uint256"
        },
        {
          "internalType": "enum DeFreeMarketplace.Status",
          "name": "status",
          "type": "uint8"
        },
        {
          "internalType": "bool",
          "name": "nftMinted",
          "type": "bool"
        }
      ],
      "stateMutability": "view",
      "type": "function"
    },
    {
      "inputs": [],
      "name": "reputationNFT",
      "outputs": [
        {
          "internalType": "contract ReputationNFT",
          "name": "",
          "type": "address"
        }
      ],
      "stateMutability": "view",
      "type": "function"
    },
    {
      "inputs": [
        {
          "internalType": "uint256",
          "name": "_id",
          "type": "uint256"
        }
      ],
      "name": "startWork",
      "outputs": [],
      "stateMutability": "nonpayable",
      "type": "function"
    }
  ],
  "bytecode": "0x60806040523480156200001157600080fd5b506040516200143e3803806200143e8339818101604052810190620000379190620000e9565b80600260006101000a81548173ffffffffffffffffffffffffffffffffffffffff021916908373ffffffffffffffffffffffffffffffffffffffff160217905550506200011b565b600080fd5b600073ffffffffffffffffffffffffffffffffffffffff82169050919050565b6000620000b18262000084565b9050919050565b620000c381620000a4565b8114620000cf57600080fd5b50565b600081519050620000e381620000b8565b92915050565b6000602082840312156200010257620001016200007f565b5b60006200011284828501620000d2565b91505092915050565b611313806200012b6000396000f3fe6080604052600436106100705760003560e01c8063249411471161004e57806324941147146100fb57806336fbad261461012457806352e5b6cf1461014f578063fa4886491461017857610070565b806303a250f914610075578063107046bd1461009e578063224d5dd2146100df575b600080fd5b34801561008157600080fd5b5061009c60048036038101906100979190610b30565b6101a3565b005b3480156100aa57600080fd5b506100c560048036038101906100c09190610b30565b610321565b6040516100d6959493929190610c3f565b60405180910390f35b6100f960048036038101906100f49190610cbe565b6103b1565b005b34801561010757600080fd5b50610122600480360381019061011d9190610b30565b6105b5565b005b34801561013057600080fd5b506101396107a2565b6040516101469190610ceb565b60405180910390f35b34801561015b57600080fd5b5061017660048036038101906101719190610e4c565b6107a8565b005b34801561018457600080fd5b5061018d610ac0565b60405161019a9190610f07565b60405180910390f35b600080600083815260200190815260200160002090508060010160009054906101000a900473ffffffffffffffffffffffffffffffffffffffff1673ffffffffffffffffffffffffffffffffffffffff163373ffffffffffffffffffffffffffffffffffffffff161461024b576040517f08c379a000000000000000000000000000000000000000000000000000000000815260040161024290610f7f565b60405180910390fd5b6000600381111561025f5761025e610bad565b5b8160030160009054906101000a900460ff16600381111561028357610282610bad565b5b146102c3576040517f08c379a00000000000000000000000000000000000000000000000000000000081526004016102ba90610feb565b60405180910390fd5b60018160030160006101000a81548160ff021916908360038111156102eb576102ea610bad565b5b0217905550817fc6103cc0479d202218c64bbfa4df30c34a1f97e64c85a5a441103a0766241e6660405160405180910390a25050565b60006020528060005260406000206000915090508060000160009054906101000a900473ffffffffffffffffffffffffffffffffffffffff16908060010160009054906101000a900473ffffffffffffffffffffffffffffffffffffffff16908060020154908060030160009054906101000a900460ff16908060030160019054906101000a900460ff16905085565b600034116103f4576040517f08c379a00000000000000000000000000000000000000000000000000000000081526004016103eb90611057565b60405180910390fd5b60016000815480929190610407906110a6565b91905055506040518060a001604052803373ffffffffffffffffffffffffffffffffffffffff1681526020018273ffffffffffffffffffffffffffffffffffffffff1681526020013481526020016000600381111561046957610468610bad565b5b815260200160001515815250600080600154815260200190815260200160002060008201518160000160006101000a81548173ffffffffffffffffffffffffffffffffffffffff021916908373ffffffffffffffffffffffffffffffffffffffff16021790555060208201518160010160006101000a81548173ffffffffffffffffffffffffffffffffffffffff021916908373ffffffffffffffffffffffffffffffffffffffff1602179055506040820151816002015560608201518160030160006101000a81548160ff0219169083600381111561054c5761054b610bad565b5b021790555060808201518160030160016101000a81548160ff0219169083151502179055509050506001547ff03bc2e49a83d942284cb30e1c2935d4b542e1e1e6456d28b5365ddb110a52a23383346040516105aa939291906110ee565b60405180910390a250565b600080600083815260200190815260200160002090508060000160009054906101000a900473ffffffffffffffffffffffffffffffffffffffff1673ffffffffffffffffffffffffffffffffffffffff163373ffffffffffffffffffffffffffffffffffffffff161461065d576040517f08c379a000000000000000000000000000000000000000000000000000000000815260040161065490611171565b60405180910390fd5b6000600381111561067157610670610bad565b5b8160030160009054906101000a900460ff16600381111561069557610694610bad565b5b146106d5576040517f08c379a00000000000000000000000000000000000000000000000000000000081526004016106cc906111dd565b60405180910390fd5b60038160030160006101000a81548160ff021916908360038111156106fd576106fc610bad565b5b02179055508060000160009054906101000a900473ffffffffffffffffffffffffffffffffffffffff1673ffffffffffffffffffffffffffffffffffffffff166108fc82600201549081150290604051600060405180830381858888f19350505050158015610770573d6000803e3d6000fd5b50817fe3805ed669490875ae87c5c8b1ad6ecca0e5e67305a833926d0d4317c4822fc060405160405180910390a25050565b60015481565b600080600084815260200190815260200160002090508060000160009054906101000a900473ffffffffffffffffffffffffffffffffffffffff1673ffffffffffffffffffffffffffffffffffffffff163373ffffffffffffffffffffffffffffffffffffffff1614610850576040517f08c379a000000000000000000000000000000000000000000000000000000000815260040161084790611171565b60405180910390fd5b6001600381111561086457610863610bad565b5b8160030160009054906101000a900460ff16600381111561088857610887610bad565b5b146108c8576040517f08c379a00000000000000000000000000000000000000000000000000000000081526004016108bf90610feb565b60405180910390fd5b60028160030160006101000a81548160ff021916908360038111156108f0576108ef610bad565b5b02179055508060010160009054906101000a900473ffffffffffffffffffffffffffffffffffffffff1673ffffffffffffffffffffffffffffffffffffffff166108fc82600201549081150290604051600060405180830381858888f19350505050158015610963573d6000803e3d6000fd5b508060030160019054906101000a900460ff16610abb57600260009054906101000a900473ffffffffffffffffffffffffffffffffffffffff1673ffffffffffffffffffffffffffffffffffffffff1663d0def5218260010160009054906101000a900473ffffffffffffffffffffffffffffffffffffffff16846040518363ffffffff1660e01b81526004016109fb92919061126b565b6020604051808303816000875af1158015610a1a573d6000803e3d6000fd5b505050506040513d601f19601f82011682018060405250810190610a3e91906112b0565b5060018160030160016101000a81548160ff021916908315150217905550827fc170a8c80ae2abe39d3fcc0ec49d3c93a37c0367fe53ec74b4211ba5d6f1b7408260010160009054906101000a900473ffffffffffffffffffffffffffffffffffffffff1684604051610ab292919061126b565b60405180910390a25b505050565b600260009054906101000a900473ffffffffffffffffffffffffffffffffffffffff1681565b6000604051905090565b600080fd5b600080fd5b6000819050919050565b610b0d81610afa565b8114610b1857600080fd5b50565b600081359050610b2a81610b04565b92915050565b600060208284031215610b4657610b45610af0565b5b6000610b5484828501610b1b565b91505092915050565b600073ffffffffffffffffffffffffffffffffffffffff82169050919050565b6000610b8882610b5d565b9050919050565b610b9881610b7d565b82525050565b610ba781610afa565b82525050565b7f4e487b7100000000000000000000000000000000000000000000000000000000600052602160045260246000fd5b60048110610bed57610bec610bad565b5b50565b6000819050610bfe82610bdc565b919050565b6000610c0e82610bf0565b9050919050565b610c1e81610c03565b82525050565b60008115159050919050565b610c3981610c24565b82525050565b600060a082019050610c546000830188610b8f565b610c616020830187610b8f565b610c6e6040830186610b9e565b610c7b6060830185610c15565b610c886080830184610c30565b9695505050505050565b610c9b81610b7d565b8114610ca657600080fd5b50565b600081359050610cb881610c92565b92915050565b600060208284031215610cd457610cd3610af0565b5b6000610ce284828501610ca9565b91505092915050565b6000602082019050610d006000830184610b9e565b92915050565b600080fd5b600080fd5b6000601f19601f8301169050919050565b7f4e487b7100000000000000000000000000000000000000000000000000000000600052604160045260246000fd5b610d5982610d10565b810181811067ffffffffffffffff82111715610d7857610d77610d21565b5b80604052505050565b6000610d8b610ae6565b9050610d978282610d50565b919050565b600067ffffffffffffffff821115610db757610db6610d21565b5b610dc082610d10565b9050602081019050919050565b82818337600083830152505050565b6000610def610dea84610d9c565b610d81565b905082815260208101848484011115610e0b57610e0a610d0b565b5b610e16848285610dcd565b509392505050565b600082601f830112610e3357610e32610d06565b5b8135610e43848260208601610ddc565b91505092915050565b60008060408385031215610e6357610e62610af0565b5b6000610e7185828601610b1b565b925050602083013567ffffffffffffffff811115610e9257610e91610af5565b5b610e9e85828601610e1e565b9150509250929050565b6000819050919050565b6000610ecd610ec8610ec384610b5d565b610ea8565b610b5d565b9050919050565b6000610edf82610eb2565b9050919050565b6000610ef182610ed4565b9050919050565b610f0181610ee6565b82525050565b6000602082019050610f1c6000830184610ef8565b92915050565b600082825260208201905092915050565b7f4e6f7420667265656c616e636572000000000000000000000000000000000000600082015250565b6000610f69600e83610f22565b9150610f7482610f33565b602082019050919050565b60006020820190508181036000830152610f9881610f5c565b9050919050565b7f496e76616c696420737461747573000000000000000000000000000000000000600082015250565b6000610fd5600e83610f22565b9150610fe082610f9f565b602082019050919050565b6000602082019050818103600083015261100481610fc8565b9050919050565b7f416d6f756e742072657175697265640000000000000000000000000000000000600082015250565b6000611041600f83610f22565b915061104c8261100b565b602082019050919050565b6000602082019050818103600083015261107081611034565b9050919050565b7f4e487b7100000000000000000000000000000000000000000000000000000000600052601160045260246000fd5b60006110b182610afa565b91507fffffffffffffffffffffffffffffffffffffffffffffffffffffffffffffffff82036110e3576110e2611077565b5b600182019050919050565b60006060820190506111036000830186610b8f565b6111106020830185610b8f565b61111d6040830184610b9e565b949350505050565b7f4f6e6c7920636c69656e74000000000000000000000000000000000000000000600082015250565b600061115b600b83610f22565b915061116682611125565b602082019050919050565b6000602082019050818103600083015261118a8161114e565b9050919050565b7f4e6f74206f70656e000000000000000000000000000000000000000000000000600082015250565b60006111c7600883610f22565b91506111d282611191565b602082019050919050565b600060208201905081810360008301526111f6816111ba565b9050919050565b600081519050919050565b60005b8381101561122657808201518184015260208101905061120b565b60008484015250505050565b600061123d826111fd565b6112478185610f22565b9350611257818560208601611208565b61126081610d10565b840191505092915050565b60006040820190506112806000830185610b8f565b81810360208301526112928184611232565b90509392505050565b6000815190506112aa81610b04565b92915050565b6000602082840312156112c6576112c5610af0565b5b60006112d48482850161129b565b9150509291505056fea2646970667358221220bee9984c531a81c31eea1988858734b23632f3c17a9fbaf9cd44c7d995960c3f64736f6c63430008140033",
  "linkReferences": {},
  "deployedLinkReferences": {}
}