{
  "_format": "hh-sol-artifact-1",
  "contractName": "DeFreeMarketplace",
  "sourceName": "contracts/DeFreeMarketplace.sol",
  "abi": [
    {
      "inputs": [
        {
          "internalType": "address",
          "name": "_nftAddress",
          "type": "address"
        }
      ],
      "stateMutability": "nonpayable",
      "type": "constructor"
    },
    {
      "anonymous": false,
      "inputs": [
        {
          "indexed": true,
          "internalType": "uint256",
          "name": "id",
          "type": "uint256"
        }
      ],
      "name": "ProjectCancelled",
      "type": "event"
    },
    {
      "anonymous": false,
      "inputs": [
        {
          "indexed": true,
          "internalType": "uint256",
          "name": "id",
          "type": "uint256"
        },
        {
          "indexed": false,
          "internalType": "address",
          "name": "freelancer",
          "type": "address"
        },
        {
          "indexed": false,
          "internalType": "string",
          "name": "nftURI",
          "type": "string"
        }
      ],
      "name": "ProjectCompleted",
      "type": "event"
    },
    {
      "anonymous": false,
      "inputs": [
        {
          "indexed": true,
          "internalType": "uint256",
          "name": "id",
          "type": "uint256"
        },
        {
          "indexed": false,
          "internalType": "address",
          "name": "client",
          "type": "address"
        },
        {
          "indexed": false,
          "internalType": "address",
          "name": "freelancer",
          "type": "address"
        },
        {
          "indexed": false,
          "internalType": "uint256",
          "name": "amount",
          "type": "uint256"
        }
      ],
      "name": "ProjectCreated",
      "type": "event"
    },
    {
      "anonymous": false,
      "inputs": [
        {
          "indexed": true,
          "internalType": "uint256",
          "name": "id",
          "type": "uint256"
        }
      ],
      "name": "ProjectStarted",
      "type": "event"
    },
    {
      "inputs": [
        {
          "internalType": "uint256",
          "name": "_id",
          "type": "uint256"
        }
      ],
      "name": "cancelProject",
      "outputs": [],
      "stateMutability": "nonpayable",
      "type": "function"
    },
    {
      "inputs": [
        {
          "internalType": "address",
          "name": "_freelancer",
          "type": "address"
        }
      ],
      "name": "createProject",
      "outputs": [],
      "stateMutability": "payable",
      "type": "function"
    },
    {
      "inputs": [
        {
          "internalType": "uint256",
          "name": "_id",
          "type": "uint256"
        }
      ],
      "name": "markCompleted",
      "outputs": [],
      "stateMutability": "nonpayable",
      "type": "function"
    },
    {
      "inputs": [],
      "name": "projectCount",
      "outputs": [
        {
          "internalType": "uint256",
          "name": "",
          "type": "uint256"
        }
      ],
      "stateMutability": "view",
      "type": "function"
    },
    {
      "inputs": [
        {
          "internalType": "uint256",
          "name": "",
          "type": "uint256"
        }
      ],
      "name": "projects",
      "outputs": [
        {
          "internalType": "address",
          "name": "client",
          "type": "address"
        },
        {
          "internalType": "address",
          "name": "freelancer",
          "type": "address"
        },
        {
          "internalType": "uint256",
          "name": "amount",
          "type": "uint256"
        },
        {
          "internalType": "enum DeFreeMarketplace.Status",
          "name": "status",
          "type": "uint8"
        },
        {
          "internalType": "bool",
          "name": "nftMinted",
          "type": "bool"
        }
      ],
      "stateMutability": "view",
      "type": "function"
    },
    {
      "inputs": [],
      "name": "reputationNFT",
      "outputs": [
        {
          "internalType": "contract ReputationNFT",
          "name": "",
          "type": "address"
        }
      ],
      "stateMutability": "view",
      "type": "function"
    },
    {
      "inputs": [
        {
          "internalType": "uint256",
          "name": "_id",
          "type": "uint256"
        }
      ],
      "name": "startWork",
      "outputs": [],
      "stateMutability": "nonpayable",
      "type": "function"
    }
  ],
  "bytecode": "0x60806040523480156200001157600080fd5b5060405162001682380380620016828339818101604052810190620000379190620000e9565b80600260006101000a81548173ffffffffffffffffffffffffffffffffffffffff021916908373ffffffffffffffffffffffffffffffffffffffff160217905550506200011b565b600080fd5b600073ffffffffffffffffffffffffffffffffffffffff82169050919050565b6000620000b18262000084565b9050919050565b620000c381620000a4565b8114620000cf57600080fd5b50565b600081519050620000e381620000b8565b92915050565b6000602082840312156200010257620001016200007f565b5b60006200011284828501620000d2565b91505092915050565b611557806200012b6000396000f3fe6080604052600436106100705760003560e01c8063249411471161004e57806324941147146100fb57806336fbad2614610124578063cac5c5121461014f578063fa4886491461017857610070565b806303a250f914610075578063107046bd1461009e578063224d5dd2146100df575b600080fd5b34801561008157600080fd5b5061009c60048036038101906100979190610cad565b6101a3565b005b3480156100aa57600080fd5b506100c560048036038101906100c09190610cad565b610321565b6040516100d6959493929190610dbc565b60405180910390f35b6100f960048036038101906100f49190610e3b565b6103b1565b005b34801561010757600080fd5b50610122600480360381019061011d9190610cad565b6105b5565b005b34801561013057600080fd5b506101396107a2565b6040516101469190610e68565b60405180910390f35b34801561015b57600080fd5b5061017660048036038101906101719190610cad565b6107a8565b005b34801561018457600080fd5b5061018d610aec565b60405161019a9190610ee2565b60405180910390f35b600080600083815260200190815260200160002090508060010160009054906101000a900473ffffffffffffffffffffffffffffffffffffffff1673ffffffffffffffffffffffffffffffffffffffff163373ffffffffffffffffffffffffffffffffffffffff161461024b576040517f08c379a000000000000000000000000000000000000000000000000000000000815260040161024290610f5a565b60405180910390fd5b6000600381111561025f5761025e610d2a565b5b8160030160009054906101000a900460ff16600381111561028357610282610d2a565b5b146102c3576040517f08c379a00000000000000000000000000000000000000000000000000000000081526004016102ba90610fc6565b60405180910390fd5b60018160030160006101000a81548160ff021916908360038111156102eb576102ea610d2a565b5b0217905550817fc6103cc0479d202218c64bbfa4df30c34a1f97e64c85a5a441103a0766241e6660405160405180910390a25050565b60006020528060005260406000206000915090508060000160009054906101000a900473ffffffffffffffffffffffffffffffffffffffff16908060010160009054906101000a900473ffffffffffffffffffffffffffffffffffffffff16908060020154908060030160009054906101000a900460ff16908060030160019054906101000a900460ff16905085565b600034116103f4576040517f08c379a00000000000000000000000000000000000000000000000000000000081526004016103eb90611032565b60405180910390fd5b6001600081548092919061040790611081565b91905055506040518060a001604052803373ffffffffffffffffffffffffffffffffffffffff1681526020018273ffffffffffffffffffffffffffffffffffffffff1681526020013481526020016000600381111561046957610468610d2a565b5b815260200160001515815250600080600154815260200190815260200160002060008201518160000160006101000a81548173ffffffffffffffffffffffffffffffffffffffff021916908373ffffffffffffffffffffffffffffffffffffffff16021790555060208201518160010160006101000a81548173ffffffffffffffffffffffffffffffffffffffff021916908373ffffffffffffffffffffffffffffffffffffffff1602179055506040820151816002015560608201518160030160006101000a81548160ff0219169083600381111561054c5761054b610d2a565b5b021790555060808201518160030160016101000a81548160ff0219169083151502179055509050506001547ff03bc2e49a83d942284cb30e1c2935d4b542e1e1e6456d28b5365ddb110a52a23383346040516105aa939291906110c9565b60405180910390a250565b600080600083815260200190815260200160002090508060000160009054906101000a900473ffffffffffffffffffffffffffffffffffffffff1673ffffffffffffffffffffffffffffffffffffffff163373ffffffffffffffffffffffffffffffffffffffff161461065d576040517f08c379a00000000000000000000000000000000000000000000000000000000081526004016106549061114c565b60405180910390fd5b6000600381111561067157610670610d2a565b5b8160030160009054906101000a900460ff16600381111561069557610694610d2a565b5b146106d5576040517f08c379a00000000000000000000000000000000000000000000000000000000081526004016106cc906111b8565b60405180910390fd5b60038160030160006101000a81548160ff021916908360038111156106fd576106fc610d2a565b5b02179055508060000160009054906101000a900473ffffffffffffffffffffffffffffffffffffffff1673ffffffffffffffffffffffffffffffffffffffff166108fc82600201549081150290604051600060405180830381858888f19350505050158015610770573d6000803e3d6000fd5b50817fe3805ed669490875ae87c5c8b1ad6ecca0e5e67305a833926d0d4317c4822fc060405160405180910390a25050565b60015481565b600080600083815260200190815260200160002090508060000160009054906101000a900473ffffffffffffffffffffffffffffffffffffffff1673ffffffffffffffffffffffffffffffffffffffff163373ffffffffffffffffffffffffffffffffffffffff1614610850576040517f08c379a00000000000000000000000000000000000000000000000000000000081526004016108479061114c565b60405180910390fd5b6001600381111561086457610863610d2a565b5b8160030160009054906101000a900460ff16600381111561088857610887610d2a565b5b146108c8576040517f08c379a00000000000000000000000000000000000000000000000000000000081526004016108bf90610fc6565b60405180910390fd5b60028160030160006101000a81548160ff021916908360038111156108f0576108ef610d2a565b5b02179055508060010160009054906101000a900473ffffffffffffffffffffffffffffffffffffffff1673ffffffffffffffffffffffffffffffffffffffff166108fc82600201549081150290604051600060405180830381858888f19350505050158015610963573d6000803e3d6000fd5b508060030160019054906101000a900460ff16610ae857600061098583610b12565b60405160200161099591906112e1565b6040516020818303038152906040529050600260009054906101000a900473ffffffffffffffffffffffffffffffffffffffff1673ffffffffffffffffffffffffffffffffffffffff1663d0def5218360010160009054906101000a900473ffffffffffffffffffffffffffffffffffffffff16836040518363ffffffff1660e01b8152600401610a27929190611358565b6020604051808303816000875af1158015610a46573d6000803e3d6000fd5b505050506040513d601f19601f82011682018060405250810190610a6a919061139d565b5060018260030160016101000a81548160ff021916908315150217905550827fc170a8c80ae2abe39d3fcc0ec49d3c93a37c0367fe53ec74b4211ba5d6f1b7408360010160009054906101000a900473ffffffffffffffffffffffffffffffffffffffff1683604051610ade929190611358565b60405180910390a2505b5050565b600260009054906101000a900473ffffffffffffffffffffffffffffffffffffffff1681565b606060008203610b59576040518060400160405280600181526020017f30000000000000000000000000000000000000000000000000000000000000008152509050610c6d565b600082905060005b60008214610b8b578080610b7490611081565b915050600a82610b8491906113f9565b9150610b61565b60008167ffffffffffffffff811115610ba757610ba661142a565b5b6040519080825280601f01601f191660200182016040528015610bd95781602001600182028036833780820191505090505b5090505b60008514610c6657600182610bf29190611459565b9150600a85610c01919061148d565b6030610c0d91906114be565b60f81b818381518110610c2357610c226114f2565b5b60200101907effffffffffffffffffffffffffffffffffffffffffffffffffffffffffffff1916908160001a905350600a85610c5f91906113f9565b9450610bdd565b8093505050505b919050565b600080fd5b6000819050919050565b610c8a81610c77565b8114610c9557600080fd5b50565b600081359050610ca781610c81565b92915050565b600060208284031215610cc357610cc2610c72565b5b6000610cd184828501610c98565b91505092915050565b600073ffffffffffffffffffffffffffffffffffffffff82169050919050565b6000610d0582610cda565b9050919050565b610d1581610cfa565b82525050565b610d2481610c77565b82525050565b7f4e487b7100000000000000000000000000000000000000000000000000000000600052602160045260246000fd5b60048110610d6a57610d69610d2a565b5b50565b6000819050610d7b82610d59565b919050565b6000610d8b82610d6d565b9050919050565b610d9b81610d80565b82525050565b60008115159050919050565b610db681610da1565b82525050565b600060a082019050610dd16000830188610d0c565b610dde6020830187610d0c565b610deb6040830186610d1b565b610df86060830185610d92565b610e056080830184610dad565b9695505050505050565b610e1881610cfa565b8114610e2357600080fd5b50565b600081359050610e3581610e0f565b92915050565b600060208284031215610e5157610e50610c72565b5b6000610e5f84828501610e26565b91505092915050565b6000602082019050610e7d6000830184610d1b565b92915050565b6000819050919050565b6000610ea8610ea3610e9e84610cda565b610e83565b610cda565b9050919050565b6000610eba82610e8d565b9050919050565b6000610ecc82610eaf565b9050919050565b610edc81610ec1565b82525050565b6000602082019050610ef76000830184610ed3565b92915050565b600082825260208201905092915050565b7f4e6f7420667265656c616e636572000000000000000000000000000000000000600082015250565b6000610f44600e83610efd565b9150610f4f82610f0e565b602082019050919050565b60006020820190508181036000830152610f7381610f37565b9050919050565b7f496e76616c696420737461747573000000000000000000000000000000000000600082015250565b6000610fb0600e83610efd565b9150610fbb82610f7a565b602082019050919050565b60006020820190508181036000830152610fdf81610fa3565b9050919050565b7f416d6f756e742072657175697265640000000000000000000000000000000000600082015250565b600061101c600f83610efd565b915061102782610fe6565b602082019050919050565b6000602082019050818103600083015261104b8161100f565b9050919050565b7f4e487b7100000000000000000000000000000000000000000000000000000000600052601160045260246000fd5b600061108c82610c77565b91507fffffffffffffffffffffffffffffffffffffffffffffffffffffffffffffffff82036110be576110bd611052565b5b600182019050919050565b60006060820190506110de6000830186610d0c565b6110eb6020830185610d0c565b6110f86040830184610d1b565b949350505050565b7f4f6e6c7920636c69656e74000000000000000000000000000000000000000000600082015250565b6000611136600b83610efd565b915061114182611100565b602082019050919050565b6000602082019050818103600083015261116581611129565b9050919050565b7f4e6f74206f70656e000000000000000000000000000000000000000000000000600082015250565b60006111a2600883610efd565b91506111ad8261116c565b602082019050919050565b600060208201905081810360008301526111d181611195565b9050919050565b600081905092915050565b7f697066733a2f2f516d4261646765496d616765486173682f0000000000000000600082015250565b60006112196018836111d8565b9150611224826111e3565b601882019050919050565b600081519050919050565b60005b8381101561125857808201518184015260208101905061123d565b60008484015250505050565b600061126f8261122f565b61127981856111d8565b935061128981856020860161123a565b80840191505092915050565b7f2e6a736f6e000000000000000000000000000000000000000000000000000000600082015250565b60006112cb6005836111d8565b91506112d682611295565b600582019050919050565b60006112ec8261120c565b91506112f88284611264565b9150611303826112be565b915081905092915050565b6000601f19601f8301169050919050565b600061132a8261122f565b6113348185610efd565b935061134481856020860161123a565b61134d8161130e565b840191505092915050565b600060408201905061136d6000830185610d0c565b818103602083015261137f818461131f565b90509392505050565b60008151905061139781610c81565b92915050565b6000602082840312156113b3576113b2610c72565b5b60006113c184828501611388565b91505092915050565b7f4e487b7100000000000000000000000000000000000000000000000000000000600052601260045260246000fd5b600061140482610c77565b915061140f83610c77565b92508261141f5761141e6113ca565b5b828204905092915050565b7f4e487b7100000000000000000000000000000000000000000000000000000000600052604160045260246000fd5b600061146482610c77565b915061146f83610c77565b925082820390508181111561148757611486611052565b5b92915050565b600061149882610c77565b91506114a383610c77565b9250826114b3576114b26113ca565b5b828206905092915050565b60006114c982610c77565b91506114d483610c77565b92508282019050808211156114ec576114eb611052565b5b92915050565b7f4e487b7100000000000000000000000000000000000000000000000000000000600052603260045260246000fdfea2646970667358221220b2b653ee136ae0d511d9bba05a3ca7cb326bde573ff9867af38cfc35bcc7251964736f6c63430008140033",
  "linkReferences": {},
  "deployedLinkReferences": {}
}